:020000040800F2
:100000000018002065090008000000000000000042
:1000100000000000000000000000000000000000E0
:10002000302808B503D97E21034800F068FB034B54
:1000300003EB400008BD00BFB90C0008F20C00083B
:100040000B4A08B5936943F03C039361032807D832
:10005000DFE800F00A020C04064808BD0648FCE789
:100060009721064800F04BFB0548F6E70548F4E702
:1000700000100240000C014000140140B90C0008BF
:1000800000080140001001400820002170470000D6
:1000900014492DE910480A784AB96FF07F40124B95
:1000A0001A6058609A6005221A6001230B700E4B8B
:1000B0000E4A9B681168DB4323F07F4399420C4C46
:1000C00007D9D4E9000110F1807B41F1000CC4E9AB
:1000D00000BCD4E900BC13604BEA03006146BDE8F4
:1000E000108800BF0C18002010E000E00818002065
:1000F000001800208360044B10B5C3600023C0E9E2
:100100000012037410BD00BF000001022DE9F3418D
:10011000044688461F46154654F8101B42689DF851
:100120002460684600F0E6F923464246012168460D
:1001300000F0B2F93978089B2A4668463EB100F0D3
:10014000A3F9684600F0BBF902B0BDE8F08100F009
:10015000A3F9F6E70B78A3F10A02012A04D9102BC0
:100160000CBF052001207047052070477FB51E4653
:100170000B78154604468DF80E30FFF7EBFF04AB05
:1001800003F8010D0022CDE900560DF10E012046C5
:10019000FFF7BCFF04B070BDF0B50C7885B044F03B
:1001A000200416461F4605468DF80E40FFF7D2FF85
:1001B000002204AB03F8010D0DF10E01009201972E
:1001C00032462846FFF7A2FF05B0F0BD1FB5062254
:1001D00004AB03F8012D0122CDE9001200220349EE
:1001E000FFF794FF05B05DF804FB00BFB40C0008F6
:1001F00013B502AC04F8012D00232246FFF7CCFF13
:1002000002B010BD42EA0112D2B20149FFF7F0BFBD
:10021000B70C000801F0EF020149FFF7E9BF00BF8A
:10022000B60C00080A4600230149FFF7B5BF00BF1E
:10023000B50C000837B5037B04468B420D4611D040
:10024000C27B9A4202D0827B9A4207D1A0680021E9
:1002500003681B689847822000F06EFA012D03D0D6
:10026000022D11D003B030BD0DF10702204600234E
:100270001049FFF77BFF9DF807200E4902F0FE02B0
:100280002046FFF7B5FFEDE700230DF107022046FA
:100290000849FFF76BFF9DF80720204642F0010256
:1002A0000449FFF7A5FFA068012103681B68984770
:1002B000D8E700BFB80C000837B50D4600230DF194
:1002C00007020B490446FFF751FF9DF8073065B15F
:1002D00043F002038DF807300DF1070200230449B3
:1002E0002046FFF759FF03B030BD23F00203F1E7CA
:1002F000B80C000837B5044600230DF107020D467F
:1003000000680C49FFF732FF012321799DF807208F
:100310008B4065B113438DF80730206800230DF141
:1003200007020449FFF738FF204603B030BD22EA38
:100330000303F0E7560D000813B50446037902A83D
:100340000A3300F8013D0A46012301462068FFF701
:1003500023FF204602B010BD13B50446027902AB5C
:10036000113203F8012D0A78006802F00F021946D5
:10037000FFF73EFF204602B010BD0160704700004D
:1003800010B504464A42D2B202490068FFF730FF76
:10039000204610BD570D000810B504464A42D2B29F
:1003A00002490068FFF724FF204610BD560D0008E3
:1003B00010B504464A42D2B202490068FFF718FF5E
:1003C000204610BD540D00084868002103681B68D2
:1003D00018474868012103681B6818472DE9F04158
:1003E0001D46CB1D23F0070300AFADEB030D944674
:1003F0006A46ADEB030D6E460C460CEB0103511E35
:10040000634504D013F801ED01F801EFF8E7036844
:100410002146D3F804803346C04734446B1EB442AF
:1004200004D014F8012D03F8012FF8E7BD46BDE80C
:10043000F0812DE9F0411D46CB1D23F0070300AFED
:10044000ADEB030D94466A46ADEB030D6E460C46CC
:100450000CEB0103511E634504D013F801ED01F8C4
:1004600001EFF8E703682146D3F800803346C04720
:1004700034446B1EB44204D014F8012D03F8012F4C
:10048000F8E7BD46BDE8F08138B504460068056868
:100490006D68A847204638BD38B504460068056831
:1004A0002D68A847204638BD10B504460B6808469D
:1004B000C4E900129B6821469847204610BD10B53C
:1004C0000446006821460368DB689847204610BD53
:1004D00013B504466846234680E80600044943F8FD
:1004E000041B03C883E80500204602B010BD00BF0E
:1004F000600D000810B50446FFF7D6FF204610BD7A
:1005000010B501704270436010BD10B504464068DC
:1005100003685B6898476068BDE8104003681B6823
:100520001847704710B50446406803681B68984731
:100530006068BDE8104003685B68184770470000BA
:100540002DE9F04104461E4688461746079D95E86A
:100550000600FFF7BDFF114B114A2360114BC4E9A0
:100560000328C4E90527C4E90736069B6262A36233
:10057000297804F10C00003118BF0121FFF7D2FFE8
:1005800004F124000121FFF7CDFF04F11400002144
:10059000FFF7C8FF2046BDE8F08100BF980D0008B6
:1005A000880D0008780D0008806800F0CFB82DE9AC
:1005B000F843437904460D4600F10C0600F1140897
:1005C00000F11C0908273BB321793046B1FA81F1CB
:1005D0004909FFF7A7FF29784046C909FFF7A2FF9D
:1005E0002046FFF7E1FF2046FFF7DEFF2179304686
:1005F000003118BF0121FFF795FF2B7848465B00BB
:100600002B70FFF782FF18B12B7843F001032B709A
:10061000013FD9D1BDE8F88329784046C909FFF7E1
:1006200081FF2046FFF7C0FF21793046B1FA81F102
:100630004909FFF777FF2046FFF7B6FF2B784846BA
:100640005B002B70FFF761FF18B12B7843F00103BB
:100650002B7021793046003118BF0121FFF762FF6E
:10066000013FD9D1D6E72DE9F34107468846144624
:100670001D460026F3B2984513D984B1237801347E
:100680000DF1070138468DF80730FFF790FF25B1CF
:100690009DF80730013505F8013C0136EAE72346AD
:1006A000EEE73846FFF780FF02B0BDE8F0812DE9A4
:1006B000F34180460F4614461D4603B10D4404B174
:1006C0003C440026F3B29F4213D984B114F8013C94
:1006D000013C0DF1070140468DF80730FFF767FF39
:1006E0001DB19DF80730013D2B700136EAE7234626
:1006F000EFE74046FFF758FF02B0BDE8F081FEE7A4
:1007000038B5FFF7C5FC04460D46FFF7BDFC0246B1
:100710000B462046294600F04BF938BD70B5064619
:10072000FFF7EEFF841941EBE675FFF7E9FFA942F9
:1007300008BFA042F9D370BDFFF7F0BF4FF47A7342
:1007400000F2E73090FBF3F0FFF7E8BF08B5FFF7E2
:10075000F5FF08BD10B50446002C05DD4FF47A7096
:10076000FFF7DCFF013CF7E710BD08B5FFF7F2FF2C
:1007700008BD704743689A6843691A4214BF012054
:1007800000207047704710B544684269236901B979
:1007900012041343236110BD704770B5044616461A
:1007A00008461D46FFF74CFC01220F21072E206052
:1007B00088BF0430C4E9010606F007039B0002FA73
:1007C00006F6E3602661026801FA03F322EA0303F6
:1007D0000360E268036895401D430560204670BDD4
:1007E00070B5044608460D46FFF71AFC0678284601
:1007F000FFF716FC42782046054B314640F8043B93
:100800000323FFF7CAFF034B2046236070BD00BFE0
:10081000C00D0008E00D0008044600B5C17B8BB098
:10082000FFF708FD01212046FFF746FD0D4D0E4E56
:10083000002329461A462046FFF798FC00230DF1B5
:10084000070231462046FFF791FC9DF80730DB0791
:1008500003D402A92046FFF7B9FC0A20FFF785FF61
:10086000E6E700BF550D0008E80D000800B5B7B079
:1008700013AD01210DA8FFF7B3FF02212846FFF7B2
:10088000AFFF032119A8FFF7ABFF04211FA8FFF753
:10089000A7FF0520FFF7C4FB04780520FFF7C0FB86
:1008A0002D4B36AE4278214646F8443D26A8082313
:1008B000FFF773FF0022294B08AC11462593204611
:1008C0000123FFF71DFE33461FAA19A9CDE90054E5
:1008D0002BA8FFF735FE0DAB2A462BA92046FFF7C4
:1008E00009FC4FF4FA60FFF740FF00222046114652
:1008F000FFF788FC214606A8FFF73FFD002106A868
:10090000FFF73EFD0021FFF747FD0021FFF750FDF7
:1009100008212046FFF77EFC114B012153F8060FFA
:1009200006941B7904908DF81430002306A88DF8E6
:100930001C30FFF7DFFC062336A901F8C93DFFF79D
:100940000BFD04A9FFF7F8FC04A92046FFF76AFC99
:100950000DA92046FFF760FFB00D0008D00D00087C
:10096000E90D0008002108B50B4A0C4B93420AD14F
:1009700000220B490B4B0C485B1A9B089A4205D18D
:10098000FFF774FFFEE743F8041BEFE750F822403F
:1009900041F822400132F1E7101800200018002031
:1009A0001018002010180020FC0D000870470000EF
:1009B00053B94AB9002908BF00281CBF4FF0FF31C6
:1009C0004FF0FF3000F074B9ADF1080C6DE904CEC2
:1009D00000F006F8DDF804E0DDE9022304B070471A
:1009E0002DE9F0478C460446089E002B4BD18A42E5
:1009F000154667D9B2FA82F24AB1C2F1200701FA6C
:100A000002F320FA07F7954047EA030C94404FEAB7
:100A1000154EBCFBFEF71FFA85F80EFB17C307FB4C
:100A200008F9210C41EA0343994509D9EB1807F16C
:100A3000FF3180F01C81994540F21981023F2B441F
:100A4000A3EB0903B3FBFEF00EFB103300FB08F130
:100A5000A4B244EA0344A14209D92C1900F1FF339E
:100A600080F00781A14240F2048102382C4440EA20
:100A700007400027641A1EB10023D440C6E9004392
:100A80003946BDE8F0878B4209D9002E00F0EC8092
:100A90000027C6E9000138463946BDE8F087B3FAB9
:100AA00083F7002F48D18B4202D3824200F2FB80B1
:100AB000841A61EB030301209C46002EE0D0C6E9B6
:100AC000004CDDE702B9FFDEB2FA82F2002A40F004
:100AD0008F800127491B4FEA15481FFA85F9B1FBA2
:100AE000F8FE08FB1E1109FB0EF04FEA144C4CEA0D
:100AF0000143984207D9EB180EF1FF3102D2984218
:100B000000F2CD808E461B1AB3FBF8F008FB1033C1
:100B100009FB00F9A4B244EA0344A14507D92C1902
:100B200000F1FF3302D2A14500F2B6801846A4EBD3
:100B3000090440EA0E409EE7C7F12005BB4022FAB7
:100B400005FC4CEA030C21FA05F44FEA1C4EB4FBF9
:100B5000FEF91FFA8CF80EFB194420FA05F3B94090
:100B600009FB08FA19430B0C43EA0444A24502FAB4
:100B700007F200FA07F30BD91CEB040409F1FF306C
:100B800080F08880A24540F28580A9F10209644482
:100B9000A4EB0A04B4FBFEF00EFB104400FB08FAC1
:100BA00089B241EA0444A24508D91CEB040400F1CF
:100BB000FF316BD2A24569D90238644440EA09404A
:100BC000A0FB0289A4EB0A044C454146CE4654D30F
:100BD00051D0002E69D05A1A64EB0E0404FA05F5C0
:100BE00022FA07F3FC401D43C6E90054002747E7FB
:100BF0009540C2F1200321FA03F04FEA1548B0FBFB
:100C0000F8F71FFA85F908FB170024FA03F391405F
:100C100007FB09FC0B43190C41EA00418C4504FA1F
:100C200002F407D9691807F1FF3031D28C452FD96A
:100C3000023F2944A1EB0C01B1FBF8F008FB101CAA
:100C400000FB09FE99B241EA0C418E4507D96918AB
:100C500000F1FF3318D28E4516D902382944A1EB92
:100C60000E0140EA07473AE73746304608E70F46A5
:100C7000E6E61846FBE64345ABD2B8EB020169EB6A
:100C80000C0201389646A4E71846E8E7084695E7BF
:100C90000746CFE781467BE702382C4447E7AEF1B1
:100CA000020E2B442FE7384607E73746E8E600BF39
:100CB000704700BF61100504002F6D6E742F6C2FFC
:100CC00048574C69622F68776C69622F6C69627251
:100CD0006172792F746172676574732F68776C69BC
:100CE000622D73746D33326631303363382E687021
:100CF000700000000001000200030004000500066F
:100D0000000700080009000A000B000C000D000E8F
:100D1000000F0100010101020103010401050106A8
:100D2000010701080109010A010B010C010D010E67
:100D3000010F020002010202020302040205020680
:100D4000020702080209020A020B020C020D020E3F
:100D5000020F020D1C0A020100000000000000004A
:100D6000DD03000833040008C9030008D3030008AA
:100D700000000000000000000B050008230500082B
:100D80000000000000000000250500083D050008E7
:100D9000000000000000000067060008AF06000821
:100DA000C9030008D3030008000000000000000091
:100DB000AD090008730700080000000000000000F3
:100DC000AD090008AD0900080000000000000000A7
:100DD00075070008850700080000000000000000FB
:100DE00087070008990700081748616C6C6F6178E5
:040DF000787878781F
:080DF400ECFBFF7F0100000091
:040000050800096581
:00000001FF
